:4000000080673030303030307e3030307e3030307e3030307e3030307e3030307e3030307d065b7e7e3030307d06617e7d065e7e7e3030307e3030307e3030307e30303002
:4000400030303030303030303030303030303030303030303030303030303030303030307e3030307e303030711062e38770ef62e33841fefb50104e62e33855f80055f93b
:4000800000711062e00270ef62e338627105627505627905627d057c02c850005504103c0410a0053f048ff8500157ff5504003c0404a00b08283f04187509008ff271106f
:4000c00043e32070ef62e000711062e00370ef62e2007c07fd8fff50107f3030303030303030303030303030303030303030303030303030303030303030303030303030a3
:4001000030303030303030303030303030303030303030303030303030303030303030303030303030303030303030303030303030303030303030303030303030303030bf
:4001400030303030303030303030303030303030592d416368736500582d41636873653a0080908100826183f084908500866087f02300210022002f002d002e0027002559
:400180000026002b0029002a0075fe76217720740071fe7221732070006025660063056500e630e700d600b000b100b200b333b433b500b600b855b900ba10bb33bc33bd81
:4001c00000be00ff2021214522402c212d552e40240125152640282129352a4061006900600062006733683363006600d100d300d000d200e1ffe200dfffde02dd00ff00fa
:4002000000000070ef62000071106200006201ff70ef6203ff620200711062020062030070ef62010062040071106204006205ff70ef6207ff620600711062060062070051
:4002400070ef62050062080071106208006209ff70ef620bff620a007110620a00620b0070ef620900620c007110620c00620dff70ef620fff620e007110620e00620f0032
:4002800070ef620d00621000711062107f62118070ef621380621200711062120062130070ef621100621400711062140062150f70ef62170f6216007110621600621700d1
:4002c00070ef62150070ef7f55050055067f5507807c02d87c02037f1070ef500067500157617c02f3500167500157c47c02f370ef207f380210084f56fc00d00456fc0197
:40030000182070ef62e30010082839ffa01f4f48fc01a003711054fd18207509001008284f59fd610018207509008fd738fc7f21034f085d7321fc2b006073187f21fc4f6d
:40034000085d712107480004b00a4170fe2b006071187f2700182b006071437001187f4173fc7f21034f085d7721fc2b006077187f21fc4f085d752107480004b00a417454
:40038000fe2b006075187f2700182b006075437401187f4177fc7f081028b00420187f903c201875dff2748fef303132333435363738394142434445460867676767210f8a
:4003c000ffe7901918210fffe090127f4b9fea5b9fe77f5200a0069004758ff87f905f0867676767210f903818210f40404090307f904b0867676767210f900918210f4049
:40040000404090017f082605805105601018210f29102a056010530540218f530560107f082605802e05205105601018210f29302a05601053054021af530560107f08261b
:400440000580510560102606f051067110601070ef2e054051056010401057ff2e05505105601040405d10082605c0510560104040402e05505105601040402605c05105d6
:400480006010182108a00479bfd3202e067f51067110601070ef187f2606802e067f2607805106711060105107601170ef50fa906350fa905f50039f4c5052905750039f20
:4004c00044905f905d905b50039f3a505a904550029f32505a903d50089f16505a903550019f0e505a902d50069f06500e9f02502c9efe50089efa500c9ef650039ef250a6
:400500005a90117f80c090d0210310fff74f03ff209ede7f900c78bffc7f08193a7c010101010871105de070ef21073905d006ffe978bffe187f1059009fcd203dfe00b0ed
:4005400005500080113dfe06d00752fe15fe8006500617fe059e867bffbfe27f4f1052fd59fc9fa4203dfa00b005500080113dfa06d00752fa15fa8006500617fa059e5dd7
:400580007bfbbfe27f210308ff7a03009e633dfe00b005502080133dfe09d00952fe7856fe00800617fe0850079e3218787bffbfd77f4f52fd210308ff4a03fc9e333dfacd
:4005c00000b005502080133dfa09d00952fa7856fa00800617fa0850079e0218787bfbbfd77f4f080850409e0856000156010852003b01d0055000800350ff9de07b01bfdd
:40060000ef77003d0009bfe51818500c9de37f0010181c1e1f1f001008040201004f3803540250409dcb56000056010852003d0200b005ffda8003ffdd9da27b01bfee7736
:40064000003d0007bfe438fd500c9da57ffffefcf8f0e0c00204081020408076087e76097e4123fe412ffe43822043862043831043871071014070fe085d205d227873d09c
:40068000037608530b5108530a5d2c5d2e7873d0037609530d5109530c6221ff622dff432301432f015508005509004183ef4187ef4182df4186df510e210fff9708220a8b
:4006c000a00b181101530a550bff800218680a6e0b680a6e0b510e210fff7908220ca00b181101530c550dff800218680c6e0d680c6e0d182e0e10470fffa0237a0fb01fdb
:400700004127fe4123fe412ffe43822043862043831043871041e1fb41e1fe41e1f77e21034f085d8321fc2b0029f060835d8721fc2b0029f06087498201a0055005530e3f
:40074000187f4183fc4187fc7f530f510e210f0107907a5d2a530850001208675508005509005d266221ff622dff4183ef4187ef4182df4186df432305432f054327014399
:40078000e10443e10143e1087f4127fe4123fe412ffe4382204386204383104387100841e1fb41e1fe41e1fe187f510e21107f260eef580a510b7f580a510b7f260eef58ad
:4007c0000c510d7f580c510d7f260eef7f4182fe9fb7550e003907d00550078007390dc003500d11072c0e01015c50016479bffd622600602a622501010060297f7101109b
:400800007c049850027c036350027c032f50037c071f500a7c07cd50007c0749208062107c07aa203900aff8107c07c45a042053015f0004107c07af5a042053035f02046b
:4008400010500057007c050850010850585c187c0397570050027c050850010850505c187c0397570050017c0508580051017c03cc570050037c0508580251037c03cc2086
:400880008f9e8fff3030303030303030303030303030303030303030303030303030303030303030303030303030303030303030303030303030303030303030303030303d
:4008c00030303030303030303030303030303030303030303030303030303030303030303030303030303030303030303030303030303030303030303030303030303030f8
:4009000030303030303030303030303030303030303030303030303030303030303030303030303030303030303030303030303030303030303030303030303030303030b7
:400940003030303030303030303030303030303030303030303030303030303030303030303030303030303030303030303030303030303030303030303030303030303077
:400980003030303030303030303030303030303030303030303030303030303030303030303030303030303030303030303030303030303030303030303030303030303037
:020000040010ea
:020000040020da
:0200000011ec01
:00000001ff
