:100000000C94FA000C941F010C941F010C941F0116
:100010000C941F010C941F010C941F010C941F01E0
:100020000C941F010C941F010C94F7020C941F01F7
:100030000C941F010C941F010C949F020C941F013F
:100040000C941F010C941F010C941F010C941F01B0
:100050000C941F010C941F010C941F010C941F01A0
:100060000C941F010C942C030C941F010C941F0181
:100070000C941F010C941F010C941F010C941F0180
:100080000C941F010C941F010C941F010C941F0170
:100090000C941F010C941F010C941F010C941F0160
:1000A0000C941F010C941F010C941F010C941F0150
:1000B0000C941F010C941F010C941F010C941F0140
:1000C0000C941F010C941F010C941F010C941F0130
:1000D0000C941F010C941F010C941F010C941F0120
:1000E0000C941F010C941F010C941F010C941F0110
:1000F0000C941F010C941F010C941F010C941F0100
:100100000C941F010C941F010C941F010C941F01EF
:100110000C941F010C941F010C941F010C941F01DF
:100120000C941F010C941F010C941F010C941F01CF
:100130000C941F010C941F010C941F010C941F01BF
:100140000C941F010C941F010C941F010C941F01AF
:100150000C941F010C941F010C941F010C941F019F
:100160000C941F010C941F010C941F010C941F018F
:100170000C941F010C941F010C941F010C941F017F
:100180000C941F010C941F010C941F010C941F016F
:100190000C941F010C941F010C941F010C941F015F
:1001A0000C941F010C941F010C941F010C941F014F
:1001B0000C941F010C941F010C941F010C941F013F
:1001C0000C941F010C941F010C941F010C941F012F
:1001D0000C941F010C941F010C941F010C941F011F
:1001E0000C941F010C941F010C941F010C941F010F
:1001F0000C941F0111241FBECFEFDFE3DEBFCDBF84
:1002000000E00CBF18BE19BE1ABE1BBE10E2A0E073
:10021000B0E2E2E8F6E000E00BBF02C007900D920A
:10022000AE34B107D9F710E2AEE4B0E201C01D92DE
:10023000AB38B107E1F70E94A9010C943F030C947D
:100240000000E0E2F3E080E481838EEF828388E0C7
:1002500082838DE080830895E0E0F2E0118282E005
:10026000828387E0848381E080830895E0E5F0E085
:10027000808182608083818181FFFDCF88ED84BF92
:1002800081E0809340000895E0E5F0E085E8858313
:10029000808180618083818184FFFDCF88ED84BF70
:1002A00084E0809340000895E0EAF0E08281876076
:1002B000828378940895109200068FEF8093200631
:1002C00098E09093400680936006E0E8F6E01082A4
:1002D0008093E0078093C00782E0818B81E0E0EBB0
:1002E000F0E084830895E0E0F8E087E08083118205
:1002F00083E086830895E0E0FBE08FEF9FEF86A325
:1003000097A383E0808383E881830895E0EAF8E09F
:10031000178284E8868380E3838388E1848383E093
:1003200085830895E0E0F1E0108280E4808380819D
:1003300086FF05C094E89083808186FDFCCFE0E0D5
:10034000F1E0168A85E2808B8DE9828B80E1838BD8
:1003500008950E9436010E9444010E9454010E94A7
:10036000CB010E9421010E94D3010E942C010E9416
:1003700073010E947B010E945B010E9486010E9422
:100380009201FFCFAAECB1E022E02C93FC01849112
:100390001C9290E0089582E390E00E94C201E0E2A6
:1003A000F3E081870895CF93DF9380E290E00E948D
:1003B000C201C0E0D2E08C8781E290E00E94C201DD
:1003C0008D87DF91CF910895E0E5F0E082E28283AE
:1003D00088E08083818183FDFDCF83E0E0E4F0E06D
:1003E00083830895E0E0F4E08FEF93E082879387C2
:1003F00081E08083818180FDFDCF83E0E0E0F4E057
:100400008283089588E08093B10481E08093B204F0
:100410009BE99093B5048093B4040895282F392F55
:10042000E0E0F8E026A337A30895282F392FE0E075
:10043000FBE026A737A70895E82FF92FDF010D90DD
:100440000020E9F711974A2F481B30E0341768F471
:10045000E0EAF8E0218125FFFDCFDC01A30FB11D0B
:100460002C9120833F5F3417A8F3E0EAF8E0818104
:1004700085FFFDCF8AE08093A008E0EAF8E0818163
:1004800085FFFDCF8DE08093A0080895FC0181E0F9
:100490008083660F660F660F61838081806880832A
:1004A00083818823E9F324813581822F932F089556
:1004B000282F392FC901E0E2F3E0208F318F258109
:1004C0002223E9F3E0E2F3E0828F938F85810895A0
:1004D00090EA9093B604E4EBF4E0908196FFFDCFB0
:1004E0001092B704E4EBF4E0908196FFFDCF6093A7
:1004F000B704E4EBF4E0908196FFFDCF8093B7045E
:10050000E4EBF4E0808186FFFDCF089591EA9093BB
:10051000B604E4EBF4E0908196FFFDCF1092B704AF
:10052000E4EBF4E0908196FFFDCF8093B704E4EB19
:10053000F4E0808186FFFDCF8091B70408951F927B
:100540000F920FB60F9208B60F9209B60F920BB624
:100550000F92112418BE19BE1BBE2F933F934F93C9
:100560005F936F937F938F939F93AF93BF93EF931B
:10057000FF93E0EEF7E0948181E089278483809106
:100580001A2090911B20019680931A2090931B2093
:1005900080915020909151208C599F4F80935020F2
:1005A0009093512080911820909119208C599F4F41
:1005B000809318209093192080E090E20E941C0202
:1005C000FF91EF91BF91AF919F918F917F916F912B
:1005D0005F914F913F912F910F900BBE0F9009BEED
:1005E0000F9008BE0F900FBE0F901F9018951F928E
:1005F0000F920FB60F9208B60F9209B60F920BB674
:100600000F92112418BE19BE1BBE2F933F934F9318
:100610005F936F937F938F939F93AF93BF93EF936A
:10062000FF938AE090E20E941C02FF91EF91BF913C
:10063000AF919F918F917F916F915F914F913F917A
:100640002F910F900BBE0F9009BE0F9008BE0F9018
:100650000FBE0F901F9018951F920F920FB60F921A
:1006600008B60F92112418BE8F938091A0088F9125
:100670000F9008BE0F900FBE0F901F901895F89422
:02068000FFCFAA
:10068200496E746572727570740052544320496EDB
:10069200746572727570740000600100496E746551
:1006A20072727570742100000000000000000000EA
:1006B2000000000000000000000000000000000038
:0E06C20000000000000000000000000000002A
:00000001FF
