:4000000080673030303030307e3030307e3030307e3030307e3030307e3030307e3030307e3030307d03a77e7e3030307e3030307e3030307e3030307e3030307e3030305e
:400040007e3030307e3030307e3030307e3030307e3030307e3030307e3030307e3030307e3030307e303030711062fa0062e38770ef50202850402850602862e33841fe08
:40008000fb50804e62e33855f80055f900711062e00270ef62e338627105627505627905627d0562d10750004e62d30762d00062d50062d40071c07c033362d00050025785
:4000c0002c0828530b18750900284b510b800475090062e300082860d574a04b187509000828530b187509000828a01c530a1875090008283f0b470bffb0065dd57460d5e1
:40010000187a0abfeb8fc9187509000828530a50003f0b470bffb0085dd57460d550007a0abfef188faa18711043e32070ef62e000711062e00343e78070ef62e2007c0995
:40014000b18fff50107f3030303030303030303030303030303030303030303030303030303030303030303030303030303030303030303030303030303030303030303081
:400180003030303030303030303030303030303030303030303030303030303030303030230021002200270425002600602a660063056500e600e700d600b000b100b200f0
:4001c000b333b433b500b600b855b900ba10bb33bc33bd00be00c000c100c220c333c433c500c600c855c900ca30cb33cc33cd00ce006c006d006e006f00ff20002117225d
:400200004024202537264061006900600062086733683363006600d100d300d000d200e1ffe200dfffde02dd00e700ff0a4270ef62000371106200036201ff70ef6203fc45
:40024000620200711062020062030070ef62010062040071106204006205ff70ef6207ff620600711062060062070070ef620500620800711062087f62098070ef620b8009
:40028000620a007110620a00620b0070ef620900620c007110620c00620d0070ef620f00620e007110620e00620f0070ef620d00621000711062100062110070ef621300c6
:4002c000621200711062120062130070ef621100621400711062140062150070ef621700621600711062160062170070ef621500621800711062180062190070ef621b0006
:40030000621a007110621a00621b0070ef621900621c007110621c00621d0070ef621f00621e007110621e00621f0070ef621d0070ef7f5500035502035503ff550100559f
:40034000047f5505807c034c7c022e7f1070ef500067500157a07c0367500167500157fb7c036770ef207f380210084f56fc00d00456fc01182070ef62e30010082839ff29
:40038000a01f4f48fc01a003711054fd18207509001008284f59fd610018207509008fd738fc703f71c07f7d0a327e43e1027f41e1fd7f4323017f4123fe7f60215b602528
:4003c0007f60225b60267f5d265c5d227f4f38035d23085d22085d26085d205d2654015d225402500049f701a0035001540070fe4123fe1860261860221860231820703f0e
:4004000071c07e5d205d265c5d227f081028b00420187f9044201875dff2748fef303132333435363738394142434445460867676767210fffe7902118210fffe0901a7f67
:400440004b9fea5b9fe77f70bf60d35200a0069008758ff8703f71c07f90650867676767210f903b18210f40404090337f90510867676767210f900918210f404040900136
:400480007f0862d0002601805101600818210f29102a016008530140218f530160087f0862d0002601802e01205101600818210f29302a01600853014021af530160087fd2
:4004c0000862d000260180510160082604f051047110600870ef2e014051016008401057ff2e01505101600840405d08082601c0510160084040402e01505101600840409b
:400500002601c051016008182108a00479bfd3202e047f51047110600870ef187f62d0002604802e047f2605805104711060085105600970ef50fa906750fa906350039f21
:40054000405052905b50039f3890639061905f50039f2e505a904950029f26505a904150089f0a505a903950019f02505a903150069efa500e9ef6502c9ef250089eee508b
:400580000c9eea50039ee6505a90157f80c094d4210310fff74f03ff209ed2703f71c07f900c78bffc7f08193a7c010101010871105de070ef21073905d006ffe978bffe49
:4005c000187f4f1052fd59fc703f71c09fc2203dfa00b005500080113dfa06d00752fa15fa8006500617fa059e6f7bfbbfe2703f71c07f4f52fd210308ff9103fc9e6e3dad
:40060000fa00b005502080133dfa09d00952fa7856fa00800617fa0850079e3d18787bfbbfd7703f71c07f4f080850409e3f56000156010852003b01d0055000800350ff08
:400640009e177b01bfef77003d0009bfe51818500c9e1a703f71c07f0010181c1e1f1f001008040201004f3803540250409dfe56000056010852003d0200b005ffda800376
:40068000ffdd9dd57b01bfee77003d0007bfe438fd500c9dd8703f71c07f62d0002e03032602fc7110510360015102600070ef2600fc510060007f7f70bf62d30762d000c0
:4006c0004f52fd64290155060048f901b005913b8003910162d000470601a02a2e0610107bfab0042606ef91f762d000201052fc0852fb60d320510754002062d30777fc5e
:4007000048faffbfdb48f902b003926f62d0005000470601a0035001703f71c07f70bf62d30762d0004f52fd6455060048f901b00590d88003909e62d000550800470601dd
:40074000a02762d3071052fc0852fb60d3205200530790ed62d00062d30720470601a00e760877fc7bfabfdb48f902b003920c62d0005108703f71c07f62d0004f52fd640b
:4007800055060048f901b00590818003904762d000550800470601a0201052fb59fc285307909e62d00020470601a012760877fcd00377fb7bfabfe248f902b00391bc623a
:4007c000d0005108703f71c07f6479d00490067f290190017f62d0000871102e02022602fe51026000500c91c42602fd5102600070ef490002affc500c91b218900d7f6496
:4008000079d00490067f290190017f62d0007110082e020151026000500591911870ef62d000530762d00071102e02025102600070ef5002917790097f62d000530790017d
:400840007f62d0005509087a0962d00071102e02025102600070ef62d0006b0762d0007110c00a2e02015102600080082602fe51026000500591362602fd5102600070ef2e
:40088000490002affc5005912462d0003c0900bfb790017f62d00071102e0202510260002602fe51026000500c91022602fd5102600070ef490002affc62d0002606fe4909
:4008c0000001b0042e0601500590e2510621017f62d00055060021ffa0072e061090017f62d0005509087a096b0762d00071102e020251026000500590b32602fd51026012
:400900000070ef62d000490002affc5002909e2607fe490001a0042e07013c0900bfc890017f62d00071102e02025102600070ef62d00047061062d0007110a00a2e020171
:400940005102600080082602fe510260005002905c2602fd5102600070ef490002affc5005904a71102e0202510260002602fe5102600070ef62d00051077f62d00071106f
:400980002e020351026000500c90222602fd5102600070ef490002affc7110500c900e2602fe510260005005900370ef7f78bffe7f43e0207101107c051d201050007c06e3
:4009c000667c03b37c03ab7c069a2010570050207c07ff62d000201050007c083962d0002010570050207c07c9201062d000510d7c083962d00020107c097b2080311050ac
:400a0000005c7c05902062d000510c62d000530a10500008510a207c044020105000085010085000085001087c05c238fc208fcf8fff71c0085dd00862d000760c1860d0da
:400a4000187e000c026401ff00303030303030303030303030303030303030303030303030303030303030303030303030303030303030303030303030303030303030301e
:400a80003030303030303030303030303030303030303030303030303030303030303030303030303030303030303030303030303030303030303030303030303030303036
:400ac00030303030303030303030303030303030303030303030303030303030303030303030303030303030303030303030303030303030303030303030303030303030f6
:400b000030303030303030303030303030303030303030303030303030303030303030303030303030303030303030303030303030303030303030303030303030303030b5
:400b40003030303030303030303030303030303030303030303030303030303030303030303030303030303030303030303030303030303030303030303030303030303075
:020000040010ea
:020000040020da
:020000005604a4
:00000001ff
