:4000000080673030303030307e3030307e3030307e3030307e3030307e3030307e3030307e3030307d02e57e7e3030307e3030307e3030307e3030307e3030307e30303021
:4000400030303030303030303030303030303030303030303030303030303030303030307d08ae7e7e303030711062e38770ef62e33841fefb501c4e62e33855f80055f98c
:4000800000711062e00270ef62e338627105627505627905627d057c027e500055111c3c111ca0053f118ff8500157b65511003c1103a00b08283f11187509008ff271109d
:4000c00043e32070ef62e000711062e00370ef62e2007c0a038fff50107f30303030303030303030303030303030303030303030303030303030303030303030303030309a
:4001000030303030303030303030303030303030303030303030303030303030303030303030303030303030303030303030303030303030303030303030303030303030bf
:4001400030303030303030303030303030303030230021cd22002704250c26006028660063056500e600e700d600b000b100b201b333b433b500b600b855b900ba10bb33a2
:40018000bc33bd00be00ff20002117224024202537264061006900600062006733683363006600d100d300d000d200e1ffe200dfffde02dd00ff00000070ef6200007110a8
:4001c0006200006201ff70ef6203ff620200711062020062030070ef6201006204a071106204a06205ff70ef6207ff620600711062060062070070ef6205006208007110e3
:400200006208036209fc70ef620bfc620a007110620a00620b0070ef620900620c007110620c00620d7f70ef620f7f620e007110620e00620f0070ef620d00621000711065
:4002400062107f62118070ef621380621200711062120062130070ef621100621400711062140062150f70ef62170f621600711062160062170070ef62150070ef7f5512b7
:400280000055137f5514807c028e7c01b97f1070ef500067500157507c02a9500167500157877c02a970ef207f380210084f56fc00d00456fc01182070ef62e30010082826
:4002c00039ffa01f4f48fc01a003711054fd18207509001008284f59fd610018207509008fd738fc7f7d0a377e43e1027f41e1fd7f4323017f4123fe7f60215b60257f60ad
:40030000225b60267f5d265c5d227f4f38035d23085d22085d26085d205d2654015d225402500049f701a0035001540070fe4123fe18602618602218602318207e5d205d04
:40034000265c5d227f081028b00420187f903c201875dff2748fef303132333435363738394142434445460867676767210fffe7901918210fffe090127f4b9fea5b9fe714
:400380007f5200a0069004758ff87f905f0867676767210f903818210f40404090307f904b0867676767210f900918210f40404090017f082612805112601018210f291071
:4003c0002a126010531240218f531260107f082612802e12205112601018210f29302a12601053124021af531260107f08261280511260102613f051137110601070ef2e01
:40040000124051126010401057ff2e12505112601040405d10082612c0511260104040402e12505112601040402612c051126010182108a00479bfd3202e137f51137110ab
:40044000601070ef187f2613802e137f2614805113711060105114601170ef50fa906350fa905f50039f4c5052905750039f44905f905d905b50039f3a505a904550029f83
:4004800032505a903d50089f16505a903550019f0e505a902d50069f06500e9f02502c9efe50089efa500c9ef650039ef2505a90117f80c090d0210310fff74f03ff209e3a
:4004c000de7f900c78bffc7f08193a7c010101010871105de070ef21073905d006ffe978bffe187f1059009fcd203dfe00b005500080113dfe06d00752fe15fe8006500644
:4005000017fe059e867bffbfe27f4f1052fd59fc9fa4203dfa00b005500080113dfa06d00752fa15fa8006500617fa059e5d7bfbbfe27f210308ff7a03009e633dfe00b02a
:4005400005502080133dfe09d00952fe7856fe00800617fe0850079e3218787bffbfd77f4f52fd210308ff4a03fc9e333dfa00b005502080133dfa09d00952fa7856fa0052
:40058000800617fa0850079e0218787bfbbfd77f4f080850409e0856000156010852003b01d0055000800350ff9de07b01bfef77003d0009bfe51818500c9de37f001018ff
:4005c0001c1e1f1f001008040201004f3803540250409dcb56000056010852003d0200b005ffda8003ffdd9da27b01bfee77003d0007bfe438fd500c9da57f7f088008082a
:400600005ddd21fe60dd43de01187f085ddd21fe60dd187f26157f26177f43d6027f41defe7f41d6fd7f4f5117471780bffa2e178052fd642901531660d855150052f9535e
:40064000151052fa0852fb0852fc08935538fd20511648f901b00a49d701b0059113800390817f4f5117471780bffa2e178052fd64551500531660d852f953151077fa52d2
:40068000fa0852fb0852fc08934b38fd20511648f901b00a49d701bfc890d6800390447f4f5117471780bffa2e178052fd64551500531660d852f9531510500077fad002ec
:4006c000740852fa0852fb0852fc08932a38fc20511648f901b00a49d701bf859093800390017f60d853165dd9210fa01162d90249d704b00562d7047f62d7007f511690b7
:40070000707f085515005117471780bffa186479c003290160d8531649d904a01c62d90262d7005dd749d701affa49d702b00755150150017f50007f50007f08551500510b
:4007400017471780bffa1841defe49d701b0206479c003290160d8531662d9015dd749d701affa49d702b00755150150017f50007f60d8531662d9017f60d841defe5dd936
:4007800049d904a01955150062d7045dd749d701affa49d702b0075515ff50017f500053157f2615fe49d701bff949d702b0042e15017f41defe49d904a028551500085de7
:4007c000d749d708a00462d70049d701affc1821ffa00a5dd862d7105515017f5dd85515007f5515ff7f49d904a00462d7007f51157f085117471780bffa182e1780642929
:4008000001531660d855150052fd53151052fe08085200084f79918a38fd20511648fd01b00a49d701b0059f4880039eb67f085117471780bffa182e17806455150053165e
:4008400060d852fd53151077fe52fe08085200084f79918138fd20511648fd01b00a49d701bfc99f0c80039e7a7f085117471780bffa182e178064551500531660d852fda4
:40088000531510500077fed002740852fe0852ff085200084f79915f38fc20511648fd01b00a49d701bf859ec880039e367f081049d708a01549d901b02649d702b018476f
:4008c0001601b022808020187e2e1780471601b021807920187e62d70026177f20187e26177f20187e2e17802617fb62d70020187e471504b0147a18c03d3c1800a0038083
:40090000062e150480042615fb2e171058195dd854007619471504b00762d71020187e2615fb2617f82e17012e1704261503a00726177f20187e62d70026177f20187e625e
:40094000d71020187e2617bf2e178049d702b037500408581a520060d87a1bc00b761a80011860d720187e26178f2e17402e1710261503a0081826177f20187e1862d700db
:4009800026177f20187e761b7a1a62d70026177f26178f2e17402e172020187e26177f20187e104f79085dde0841defe2615fb52fd531952fb53183901a008c00626178f70
:4009c00080092e150426178f8001182101a00443de0118207f104f79085dde0841defe52fd531a52fb531b7a1b2617f0182101a00443de0118207f7f51177f2617f87f26b3
:400a0000178f7f7101107c04467c02e97c02f12090988020500008500008909a38fe10500057007c04b6205f100010570051107c037a208fe08fff08511108511008510fe6
:400a400008510e08510d08510c08510b08510a08510908510808510708510608510508510408510308500008500008904938fe10570c50cd7c02f9204508011853031853cf
:400a80000418530518530618530718530818530918530a18530b18530c18530d18530e18530f185310185311187e107c05fb7c05ff7c0614207f104f1050000850010852eb
:400ac000fb0852fc085040087c062638fb20107c09f8205311471104aff5107c09fb20207f30303030303030303030303030303030303030303030303030303030303030da
:400b000030303030303030303030303030303030303030303030303030303030303030303030303030303030303030303030303030303030303030303030303030303030b5
:400b40003030303030303030303030303030303030303030303030303030303030303030303030303030303030303030303030303030303030303030303030303030303075
:400b80003030303030303030303030303030303030303030303030303030303030303030303030303030303030303030303030303030303030303030303030303030303035
:400bc00030303030303030303030303030303030303030303030303030303030303030303030303030303030303030303030303030303030303030303030303030303030f5
:020000040010ea
:020000040020da
:020000007b1c67
:00000001ff
