:4000000080673030303030307e3030307e3030307e3030307e3030307e3030307e3030307e3030307d03ba7e7d041e7e7e3030307e3030307e3030307e3030307e3030303c
:400040007e3030307e3030307e3030307e3030307e3030307e3030307e3030307e3030307d08d87e7e303030711062fa0062e38770ef50202850402850602862e33843fe39
:400080000450804e62e33855f80055f900711062e09a70ef62e33843e04062e20049da40affc711062e0c870ef62e33862e20049da40affc711062e0ca70ef6271056275c4
:4000c00005627905627d0562d10750004e62d30762d00062d50062d40071c07c034f62d000500257480828531a18750900284b511a800475090062e300082860d574a04b46
:40010000187509000828531a187509000828a01c53191875090008283f1a471affb0065dd57460d5187a19bfeb8fc9187509000828531950003f1a471affb0085dd57460e8
:40014000d550007a19bfef188faa18711043e32070ef62e000711062e0c343e78070ef62e2007c0a958fff50107f30303030303030303030303030303030303030303030cd
:4001800030303030303030303030303030303030303030303030303030303030303030305374617475733a00427574746f6e3a002b0029002a002300210022002704258017
:4001c00026006028660063056500e600e700d600b000b100b200b333b433b511b601b855b900ba10bb33bc33bd00be00c000c100c220c333c433c500c600c855c900ca307b
:40020000cb33cc33cd00ce006c006d006e006f00ff280629862a7520002107224024202537264061006900600062006733683363006600d100d300d000d200e1ffe200dfd4
:40024000ffde02dd00e700ff0c6970ef62000071106200076201f870ef6203f8620207711062020062030070ef6201006204a071106204a06205ff70ef6207fc620600719e
:400280001062060062070070ef620500620800711062087f62098070ef620b80620a007110620a00620b0070ef620900620c007110620c00620d0070ef620f00620e00717f
:4002c00010620e00620f0070ef620d00621000711062100062110070ef621300621200711062120062130070ef621100621400711062140062150070ef621700621600713e
:400300001062160062170070ef621500621800711062180062190070ef621b00621a007110621a00621b0070ef621900621c007110621c00621d0070ef621f00621e00717d
:4003400010621e00621f0070ef621d0070ef7f55000055017f5502807c035f7c024a7f1070ef500067500157b07c037a500167500257117c037a70ef207f380210084f56b3
:40038000fc00d00456fc01182070ef62e30010082839ffa01f4f48fc01a003711054fd18207509001008284f59fd610018207509008fd738fc703f71c07f7d0ae37e43e147
:4003c000027f41e1fd7f4323017f4123fe7f60215b60257f60225b60267f5d265c5d227f4f38035d23085d22085d26085d205d2654015d225402500049f701a00350015451
:400400000070fe4123fe1860261860221860231820703f71c07e5d205d265c5d227f7e081028b00420187f9044201875dff2748fef30313233343536373839414243444560
:40044000460867676767210fffe7902118210fffe0901a7f4b9fea5b9fe77f70bf60d35200a0069008758ff8703f71c07f90650867676767210f903b18210f40404090339b
:400480007f90510867676767210f900918210f40404090017f0862d0002600805100600818210f29102a006008530040218f530060087f0862d0002600802e00205100604f
:4004c0000818210f29302a00600853004021af530060087f0862d000260080510060082601f051017110600870ef2e004051006008401057ff2e00505100600840405d08f1
:40050000082600c0510060084040402e00505100600840402600c051006008182108a00479bfd3202e017f51017110600870ef187f62d0002601802e017f2602805101711d
:400540001060085102600970ef50fa906750fa906350039f405052905b50039f3890639061905f50039f2e505a904950029f26505a904150089f0a505a903950019f0250c3
:400580005a903150069efa500e9ef6502c9ef250089eee500c9eea50039ee6505a90157f80c090d0210310fff74f03ff209ed2703f71c07f900c78bffc7f08193a7c010196
:4005c00001010871105de070ef21073905d006ffe978bffe187f4f1052fd59fc703f71c09fc2203dfa00b005500080113dfa06d00752fa15fa8006500617fa059e6f7bfbcf
:40060000bfe2703f71c07f4f52fd210308ff9103fc9e6e3dfa00b005502080133dfa09d00952fa7856fa00800617fa0850079e3d18787bfbbfd7703f71c07f4f080850407e
:400640009e3f56000156010852003b01d0055000800350ff9e177b01bfef77003d0009bfe51818500c9e1a703f71c07f0010181c1e1f1f001008040201004f380354025090
:40068000409dfe56000056010852003d0200b005ffda8003ffdd9dd57b01bfee77003d0007bfe438fd500c9dd8703f71c07f7f088008085ddd21fe60dd43de01187f085d03
:4006c000dd21fe60dd187f62d00026037f62d00026057f43d6027f41defe7f41d6fd7f62d0004f5105470580bffa2e058052fd642901530460d855030052f953031052fadb
:400700000852fb0852fc08930c38fd20510448f901b00a49d701b005912e80039093703f71c07f62d0004f5105470580bffa2e058052fd64550300530460d852f9530310cd
:4007400077fa52fa0852fb0852fc08930638fd20510448f901b00a49d701bfc190ea8003904f703f71c07f62d0004f5105470580bffa2e058052fd64550300530460d852f3
:40078000f9530310500077fad002740852fa0852fb0852fc0892e938fc20510448f901b00a49d701bf7790a080039005703f71c07f62d00060d853045dd9210fa01162d99b
:4007c0000249d704b00562d7047f62d7007f510490767f62d000085503005105470580bffa186479c003290160d8530449d904a01c62d90262d7005dd749d701affa49d77c
:4008000002b00755030150017f50007f50007f62d000085503005105470580bffa1841defe49d701b0206479c003290160d8530462d9015dd749d701affa49d702b00755e4
:40084000030150017f50007f62d00060d8530462d9017f62d00060d841defe5dd949d904a01955030062d7045dd749d701affa49d702b0075503ff50017f500053037f62a3
:40088000d0002603fe49d701bff649d702b0042e03017f62d00041defe49d904a028550300085dd749d708a00462d70049d701affc1821ffa00a5dd862d7105503017f5dad
:4008c000d85503007f5503ff7f49d904a00462d7007f62d00051037f08105dd30849d708a01849d901b02f49d702b01e470401b02e80a71860d320187e2e0580470401b0c9
:400900002d809d1860d320187e62d70026057f1860d320187e26057f1860d320187e2e05802605fb62d7001860d320187e470304b0147a06c04f3c0600a00380062e030489
:4009400080042603fb2e0510510760d358085dd8703f71805400703f71007608470304b00a62d7101860d320187e2603fb2605f82e05012e0504260303a00a26057f1860de
:40098000d320187e62d70026057f1860d320187e62d7101860d320187e2605bf2e058049d702b04c500408510960d3580a703f71805200703f710060d87a0bc00e760a80dd
:4009c000011860d71860d320187e26058f2e05402e0510260303a00b1826057f1860d320187e1862d70026057f1860d320187e760b7a0ad0037a0962d70026057f26058fa8
:400a00002e05402e05201860d320187e26057f1860d320187e104f79085dde0841defe62d0002603fb52fc530752fd530852fb53063901a008c00626058f80092e03042670
:400a4000058f8001182101a00443de011820703f71c07f62d000104f79085dde0841defe52fc530952fd530a52fb530b7a0b2605f0182101a00443de011820703f71c07f20
:400a80007f62d00051057f62d0002605f87f62d00026058f7f7101107c05317c03be7c03c62090ca803a500008501f08915638fe10500057007c05a450010850a85c187c7e
:400ac000041f570050017c05a42062d000511f62d0005319105000085119207c0454208fc68fff71c0085dd0085dd3085dd4085dd50862d000511a085119085118085117d4
:400b000008511608511508511408511308511208511108511008510f08510e08510d08510c0862d000761c10578050007c03ce2062d00018530c18530d18530e18530f188b
:400b4000531018531118531218531318531418531518531618531718531818531918531a1860d51860d41860d31860d0187e107c06ae7c06b27c06c7207f104f1050000828
:400b800050010852fb0852fc085020087c072338fb20107c0a812062d000531a471a40aff2107c0a8e20207f104f1050000850010852fb0852fc085020087c06df38fb20ce
:400bc000107c0a812062d000531a471a04aff2107c0a8720207f104f1050000850010852fb0852fc08509e087c06df38fb20107c0a812062d000531a471a04aff2107c0a56
:400c00008720207f104f1050000850010852fb0852fc085040087c06df38fb7c0a812062d000531b10570050027c05a450010850a05c187c041f570050037c05a42062d055
:400c400000511b62d0005319105000085119207c045420107c0a812062d000531a471a04aff2107c0a8720207f001b050001000000ff00303030303030303030303030303c
:400c80003030303030303030303030303030303030303030303030303030303030303030303030303030303030303030303030303030303030303030303030303030303034
:400cc00030303030303030303030303030303030303030303030303030303030303030303030303030303030303030303030303030303030303030303030303030303030f4
:400d000030303030303030303030303030303030303030303030303030303030303030303030303030303030303030303030303030303030303030303030303030303030b3
:400d40003030303030303030303030303030303030303030303030303030303030303030303030303030303030303030303030303030303030303030303030303030303073
:020000040010ea
:020000040020da
:02000000b9ed58
:00000001ff
