:4000000080673030303030307e3030307e3030307e3030307e3030307e3030307e3030307e3030307d06227e7d03c07e7d03c17e7e3030307e3030307e3030307e3030307f
:400040007e3030307e3030307e3030307e3030307e3030307e3030307e3030307e3030307e3030307e303030711062fa0062e38770ef50202850402850602862e33843fe06
:400080000450804e62e33855f80055f900711062e09a70ef62e33843e04062e20049da40affc627105627505627905627d0562d10750004e62d30762d00062d50062d400ed
:4000c00071c07c035562d0005002574e0828537318750900284b5173800475090062e300082860d574a04b1875090008285373187509000828a01c53721875090008283f2c
:40010000734773ffb0065dd57460d5187a72bfeb8fc9187509000828537250003f734773ffb0085dd57460d550007a72bfef188faa18711043e32070ef62e000711062e0a5
:400140008343e78070ef62e2007c09158fff50107f3030303030303030303030303030303030303030303030303030303030303030303030303030303030303030303030d8
:400180003030303030303030303030303030303030303030303030303030303030303030476573656e6465743a002300210022002704258026002f002d002e002b0029009c
:4001c0002a006028660063056500e600e700d600b030b100b200b333b433b500b620b855b900ba10bb33bc33bd00be00c000c100c220c333c433c500c600c855c900ca3039
:40020000cb33cc33cd00ce006c006d006e006f00ff2000211722402420253726402c052de12e40280d29012a4761006900600062006733683363006600d100d300d000d264
:4002400000e1ffe200df9bde00dd00e700ff0acd70ef62000071106200016201fe70ef6203fe620200711062020062030070ef62010062040071106204006205ff70ef621e
:4002800007bc620640711062060062070070ef62050062080071106208ff62090070ef620b00620a807110620a00620b0070ef620900620c007110620c00620d0070ef6293
:4002c0000f00620e007110620e00620f0070ef620d00621000711062100062110070ef621300621200711062120062130070ef621100621400711062140062150070ef624e
:400300001700621600711062160062170070ef621500621800711062180062190070ef621b00621a007110621a00621b0070ef621900621c007110621c00621d0070ef628d
:400340001f00621e007110621e00621f0070ef621d0070ef7f5502005503ff5504007c03657c02507f1070ef500067500157aa7c0380500167500257117c038070ef207f82
:40038000380210084f56fc00d00456fc01182070ef62e30010082839ffa01f4f48fc01a003711054fd18207509001008284f59fd610018207509008fd738fc703f71c07f5c
:4003c0007e7d09bf08105dd30858015d2f082108b00418805e1821e0a0122c00492e002120a050412ffe432f0180485d2e470001b041390db0142e000162d300703f718010
:40040000565500703f7100802a3920c02662d3003c010fc011703f7180565500703f71002e0010800e703f71805455703f7100755a011860d320187e43e10443e1087f4131
:40044000e1fb41e1f77f71102101a00743281070ef7f4128ef70ef7f2901602b602f912a7f412bfe412ffe7f60297f5d2b7f5d2e7f5d2f7f210171103901a0064128ef80db
:400480000443281070ef7f082101a00643e108800441e1f7182102a00643e104800441e1fb7f303132333435363738394142434445460867676767210fffe7900f18210fda
:4004c000ffe090087f4b9fea5b9fe77f492b10affc60297f492f08affc5d2e7f5d2f082108b00418800b5d2e4b1821a0b0034b7f50007f5d2f21e8082108b0071829014b4d
:4005000080071821e04b5d2e7f70bf60d35200a0069fb9758ff8703f71c07f70bf62d3074f52fba01a7bfb52fc59fd60d35200492b10affc60294f62d30777fd8fe4703f80
:4005400071c07f4f3dfa00b0063dfb00a01d1052fc59fd28492b10affc60292007fd010ffc0017fb011ffa008fdb703f71c07f081028a00b9f56201875dff5748ff238fe55
:400580007f500d9f47500a9f437f62d00055550062d00055010026000062d0005578007f62d000510021017f62d000510021f026000f7f62d00051017f70bf62d000505541
:4005c00002785c62d3005200b0041080333920b01175767852003c780fbff310560000801f107576783c780faff35200a0123920bff156000076783c780fb00455780f2042
:40060000103d0000b00a2057005b703f71c07f205000703f71c07f62d000505502785c50007f7d09be7e43e1027f41e1fd7f4323017f4123fe7f60215b60257f60225b604e
:40064000267f5d265c5d227f4f38035d23085d22085d26085d205d2654015d225402500049f701a0035001540070fe4123fe1860261860221860231820703f71c07e5d201b
:400680005d265c5d227f081028b00420187f9044201875dff2748fef303132333435363738394142434445460867676767210fffe7902118210fffe0901a7f4b9fea5b9f43
:4006c000e77f70bf60d35200a0069008758ff8703f71c07f90650867676767210f903b18210f40404090337f90510867676767210f900918210f40404090017f0862d000c9
:400700002602805102600818210f29102a026008530240218f530260087f0862d0002602802e02205102600818210f29302a02600853024021af530260087f0862d000269d
:400740000280510260082603f051037110600870ef2e024051026008401057ff2e02505102600840405d08082602c0510260084040402e02505102600840402602c0510235
:400780006008182108a00479bfd3202e037f51037110600870ef187f62d0002603802e037f2604805103711060085104600970ef50fa906750fa906350039f405052905b12
:4007c00050039f3890639061905f50039f2e505a904950029f26505a904150089f0a505a903950019f02505a903150069efa500e9ef6502c9ef250089eee500c9eea5003ef
:400800009ee6505a90157f80c094d4210310fff74f03ff209ed2703f71c07f900c78bffc7f08193a7c010101010871105de070ef21073905d006ffe978bffe187f4f105265
:40084000fd59fc703f71c09fc2203dfa00b005500080113dfa06d00752fa15fa8006500617fa059e6f7bfbbfe2703f71c07f4f52fd210308ff9103fc9e6e3dfa00b0055073
:400880002080133dfa09d00952fa7856fa00800617fa0850079e3d18787bfbbfd7703f71c07f4f080850409e3f56000156010852003b01d0055000800350ff9e177b01bf95
:4008c000ef77003d0009bfe51818500c9e1a703f71c07f0010181c1e1f1f001008040201004f3803540250409dfe56000056010852003d0200b005ffda8003ffdd9dd57b1b
:4009000001bfee77003d0007bfe438fd500c9dd8703f71c07f104f3802710143e020107c07987c062e7c0626201050007c0458201050017c048720807f62d0005177085123
:400940007662d0005373185372517360d550003f7262d00055770555760062d000517708517662d00053731853725401517354005172010162d000537762d0005173090099
:4009800062d0005376107c04d462d00020537352015370520060d551733f703c730dbfbb5000085010085000085020085000085005087c0aaa38fa8f8138fe208fff7e71f0
:4009c000c0085dd0085dd3085dd4085dd50862d000517308517208517108517008516f08516e08516d08516c08516b08516a0851690851680851670851660851650845004d
:400a000001107c05a062d000203900a055107c05b962d00053735a7220517208517362d000537418537562d0003c7300b0063c7200a02a1050005c7c080b2010500108503b
:400a4000a05c187c06862010570050017c080b201050000850055c187c06c220107c058a2062d00018536518536618536718536818536918536a18536b18536c18536d1845
:400a8000536e18536f1853701853711853721853731860d51860d41860d31860d0187e62d000104f52fb60d58003104f52fc5372537152fb537352fa80083f717bf81ff77b
:400ac000003df800bff53df700bff0207f0005005000740004ff0030303030303030303030303030303030303030303030303030303030303030303030303030303030300f
:400b000030303030303030303030303030303030303030303030303030303030303030303030303030303030303030303030303030303030303030303030303030303030b5
:400b40003030303030303030303030303030303030303030303030303030303030303030303030303030303030303030303030303030303030303030303030303030303075
:400b80003030303030303030303030303030303030303030303030303030303030303030303030303030303030303030303030303030303030303030303030303030303035
:400bc00030303030303030303030303030303030303030303030303030303030303030303030303030303030303030303030303030303030303030303030303030303030f5
:020000040010ea
:020000040020da
:020000007c780a
:00000001ff
