:4000000080673030303030307e3030307e3030307e3030307e3030307e3030307e3030307d067a7e7e3030307d03757e7e3030307d03157e7e3030307e3030307e3030301e
:4000400030303030303030303030303030303030303030303030303030303030303030307e3030307e303030711062e38770ef62e33841fefb501c4e62e33855f80055f92f
:4000800000711062e00270ef62e338627105627505627905627d057c02ae500055101c3c101ca0053f108ff8500157e75510003c1002a00b08283f10187509008ff2711043
:4000c00043e32070ef62e000711062e00370ef62e2007c075d8fff50107f303030303030303030303030303030303030303030303030303030303030303030303030303043
:4001000030303030303030303030303030303030303030303030303030303030303030303030303030303030303030303030303030303030303030303030303030303030bf
:400140003030303030303030303030303030303041442d576572743a0080908100826083f023002100220171fd7221732070002b0029002a002f002d002e0033043180327e
:40018000006028660063056500e600e702d600b002b100b200b333b433b580b640b855b900ba10bb33bc33bd00be00ff203121152240280629c62a7d2c002d172e40302010
:4001c0003137324061006900600062006733683363006600d100d300d000d200e1ffe200dfffde02dd00ff050070ef62000071106200006201ff70ef6203ff620200711046
:4002000062020062030070ef62010062040071106204006205ff70ef6207ff620600711062060062070070ef62050062080071106208036209fc70ef620bfc620a007110c5
:40024000620a00620b0070ef620900620c007110620c28620d5770ef620f56620e297110620e00620f0070ef620d00621000711062107f62118070ef621380621200711081
:4002800062120062130070ef621100621400711062140062150f70ef62170f621600711062160062170070ef62150070ef7f55110055127f5513807c02be7c01e97f107036
:4002c000ef500067500157597c02d9500167500157ac7c02d970ef207f380210084f56fc00d00456fc01182070ef62e30010082839ffa01f4f48fc01a003711054fd182031
:400300007509001008284f59fd610018207509008fd738fc7f7d07e47e43e1107f41e1ef7f432f017f412ffe7f602d5b60317f602e5b60327f5d325c5d2e7f4f38035d2f25
:40034000085d2e085d32085d2c5d3254015d2e5402500049f701a0035001540070fe412ffe18603218602e18602f18207e5d2c5d325c5d2e7f7e43e1047f41e1fb7f290132
:40038000602b7f412bfe7f60297f5d2a7f5d2b7f21034f085d7321fc2b006073187f21fc4f085d712107480004b00a4170fe2b006071187f2700182b006071437001187f00
:4003c0004173fc7f081028b00420187f903c201875dff2748fef303132333435363738394142434445460867676767210fffe7901918210fffe090127f4b9fea5b9fe77f66
:400400005200a0069004758ff87f905f0867676767210f903818210f40404090307f904b0867676767210f900918210f40404090017f082611805111601018210f29102a47
:40044000116010531140218f531160107f082611802e11205111601018210f29302a11601053114021af531160107f08261180511160102612f051127110601070ef2e11a6
:400480004051116010401057ff2e11505111601040405d10082611c0511160104040402e11505111601040402611c051116010182108a00479bfd3202e127f5112711060e8
:4004c0001070ef187f2612802e127f2613805112711060105113601170ef50fa906350fa905f50039f4c5052905750039f44905f905d905b50039f3a505a904550029f3236
:40050000505a903d50089f16505a903550019f0e505a902d50069f06500e9f02502c9efe50089efa500c9ef650039ef2505a90117f80c090d0210310fff74f03ff209ede0d
:400540007f900c78bffc7f08193a7c010101010871105de070ef21073905d006ffe978bffe187f1059009fcd203dfe00b005500080113dfe06d00752fe15fe80065006178a
:40058000fe059e867bffbfe27f4f1052fd59fc9fa4203dfa00b005500080113dfa06d00752fa15fa8006500617fa059e5d7bfbbfe27f210308ff7a03009e633dfe00b005bc
:4005c000502080133dfe09d00952fe7856fe00800617fe0850079e3218787bffbfd77f4f52fd210308ff4a03fc9e333dfa00b005502080133dfa09d00952fa7856fa008057
:400600000617fa0850079e0218787bfbbfd77f4f080850409e0856000156010852003b01d0055000800350ff9de07b01bfef77003d0009bfe51818500c9de37f0010181ce2
:400640001e1f1f001008040201004f3803540250409dcb56000056010852003d0200b005ffda8003ffdd9da27b01bfee77003d0007bfe438fd500c9da57f7a19c0027e3ccd
:400680001a00b012085de553175de4531618551a015519037e438220438310085de5121753175de41a16676e1706178009003901b005785517ff5f15175314551801183c68
:4006c0001b00b00e551a005519004183ef4182df7e7a1ba00e551a005519004183ef4182df7e41e1fe7e43e7c0900d4382204383106221ff4323017f4f2103085d8321fcbe
:400700002b006083187f41e1fe4183fc4123fe7f4183ef4182df551a00551900531b5d22b00462220162dbfe43e1017f41e1fe4382204383107f51187f551800581451159b
:400740003c1800bff57f55180051157f581451157f51157f51185518007f60227f71011050027c03907c04c550007c037e50037c06e650007c07107c03197c0321208032f7
:400780003c0100a00e500008500008903938fe55010010500057007c053550010850505c187c03c4570050017c053551007c03e6208fce8fff107c0736203900aff8107cb8
:4007c00007392053007f104f107c038d205310471010aff552fc530f3e0f107c038720450802207f08511008510f08510e08510d08510c08510b08510a0851090851080808
:4008000051070851060851050851040851030851020855010110578050007c03292045080118530218530318530418530518530618530718530818530918530a18530b185c
:40084000530c18530d18530e18530f185310187e3030303030303030303030303030303030303030303030303030303030303030303030303030303030303030303030309d
:400880003030303030303030303030303030303030303030303030303030303030303030303030303030303030303030303030303030303030303030303030303030303038
:4008c00030303030303030303030303030303030303030303030303030303030303030303030303030303030303030303030303030303030303030303030303030303030f8
:4009000030303030303030303030303030303030303030303030303030303030303030303030303030303030303030303030303030303030303030303030303030303030b7
:400940003030303030303030303030303030303030303030303030303030303030303030303030303030303030303030303030303030303030303030303030303030303077
:020000040010ea
:020000040020da
:02000000fb1be8
:00000001ff
