:4000000080673030303030307e3030307e3030307e3030307e3030307e3030307e3030307d07e57e7e3030307e3030307e3030307e3030307e3030307e3030307e3030301c
:400040007e3030307e3030307e3030307e3030307e3030307e3030307e3030307e3030307d068e7e7e303030711062fa0062e38770ef50202850402850602862e33843fe85
:400080000450804e62e33855f80055f900711062e09a70ef62e33843e04062e20049da40affc627105627505627905627d0562d10750004e62d30762d00062d50062d400ed
:4000c00071c07c035462d0005002574d0828531618750900284b5116800475090062e300082860d574a04b1875090008285316187509000828a01c53151875090008283fa2
:40010000164716ffb0065dd57460d5187a15bfeb8fc9187509000828531550003f164716ffb0085dd57460d550007a15bfef188faa18711043e32070ef62e000711062e030
:400140008343e78070ef62e2007c08f48fff50107f3030303030303030303030303030303030303030303030303030303030303030303030303030303030303030303030fa
:400180003030303030303030303030303030303030303030303030303030303030303030416472657373653a004144433a0050536f432049324320536c617665008090815d
:4001c00000826083f023002100220171fe7221732070006028660063056500e600e742d604b000b100b200b333b433b500b600b855b900ba10bb33bc33bd00be00c000c1e6
:4002000000c220c333c433c500c600c855c900ca30cb33cc33cd00ce006c006d006e006f00ff20312115224061006900600062006733683363006600d100d300d000d2007e
:40024000e1ffe200dfffde02dd00e748ff09b970ef62000071106200006201ff70ef6203ff620200711062020062030070ef6201006204a071106204a06205ff70ef62073d
:40028000fc620600711062060062070070ef620500620800711062087f62098070ef620b80620a007110620a00620b0070ef620900620c007110620c00620d0070ef620f8b
:4002c00000620e007110620e00620f0070ef620d00621000711062100062110070ef621300621200711062120062130070ef621100621400711062140062150070ef621746
:4003000000621600711062160062170070ef621500621800711062180062190070ef621b00621a007110621a00621b0070ef621900621c007110621c00621d0070ef621f85
:4003400000621e007110621e00621f0070ef621d0070ef7f55000055017f5502807c03647c024f7f1070ef500067500157bd7c037f500167500257227c037f70ef207f384f
:400380000210084f56fc00d00456fc01182070ef62e30010082839ffa01f4f48fc01a003711054fd18207509001008284f59fd610018207509008fd738fc703f71c07f2173
:4003c000034f085d7321fc2b00607318703f71c07f21fc4f085d712107480004b00e4170fe2b00607118703f71c07f2700182b00607143700118703f71c07f4173fc7f080e
:400400001028b00420187f9044201875dff2748fef303132333435363738394142434445460867676767210fffe7902118210fffe0901a7f4b9fea5b9fe77f70bf60d35290
:4004400000a0069008758ff8703f71c07f90650867676767210f903b18210f40404090337f90510867676767210f900918210f40404090017f0862d0002600805100600806
:4004800018210f29102a006008530040218f530060087f0862d0002600802e00205100600818210f29302a00600853004021af530060087f0862d000260080510060082636
:4004c00001f051017110600870ef2e004051006008401057ff2e00505100600840405d08082600c0510060084040402e00505100600840402600c051006008182108a004e6
:4005000079bfd3202e017f51017110600870ef187f62d0002601802e017f2602805101711060085102600970ef50fa906750fa906350039f405052905b50039f3890639042
:4005400061905f50039f2e505a904950029f26505a904150089f0a505a903950019f02505a903150069efa500e9ef6502c9ef250089eee500c9eea50039ee6505a90157fcc
:4005800080c090d0210310fff74f03ff209ed2703f71c07f900c78bffc7f08193a7c010101010871105de070ef21073905d006ffe978bffe187f4f1052fd59fc703f71c010
:4005c0009fc2203dfa00b005500080113dfa06d00752fa15fa8006500617fa059e6f7bfbbfe2703f71c07f4f52fd210308ff9103fc9e6e3dfa00b005502080133dfa09d065
:400600000952fa7856fa00800617fa0850079e3d18787bfbbfd7703f71c07f4f080850409e3f56000156010852003b01d0055000800350ff9e177b01bfef77003d0009bf6f
:40064000e51818500c9e1a703f71c07f0010181c1e1f1f001008040201004f3803540250409dfe56000056010852003d0200b005ffda8003ffdd9dd57b01bfee77003d00a6
:4006800007bfe438fd500c9dd8703f71c07f0810703f71805dd3085dd00862d000510660d32e038049d708a0092603f02e0300800849d720a00380a85103210ee0018011f6
:4006c000806780798047809880968094809280995dd821fe3980a00662d700808c49d801b00f550a022603f02e030262d7108079550a012603f02e03065f050451070205a7
:400700005c520060d8760562d714805d5108783a05c00f510702055c520060d876052e032060d862d70480415dd83a08d02da02b530553042603f02e0304801a5109a01b1d
:40074000783a05c016510702055c5dd854002e03107605800162d710800f62d700800a2603f02e0300550a001860d01860d320187e62d000711041045f4305a070ef4307f6
:40078000a0550300550a009029902e40404040405000530471104304a04305a070ef4307a07f62d000510321b026034f7f50407f800441ddfe43de017f43d6317f41defee8
:4007c00041d6fe7f41defe7f41d6fe7f62d0004f52fd530852fc530952fb530752fa5306703f71c07f7a10c0027e3c1100b012085de5530e5de4530d185511015510ff7e2f
:40080000438220438310085de5120e530e5de41a0d3940b00578550eff5f0c0e530b550f01183c1200b00e5511005510004183ef4182df7e7a12a00e5511005510004183fb
:40084000ef4182df7e711041e73f43e78070ef41e1fe7e900d4382204383106221ff4323017f4f2103085d8321fc2b00608318703f71c07f41e1fe4183fc4123fe7f62d02a
:40088000004183ef4182df55110055100053125d22b004622201711041e73f43e74070ef62dbfe43e1017f711041e73f43e78070ef41e1fe4382204383107f62d000510f8e
:4008c0007f62d000550f00580b510c3c0f00bff57f62d000550f00510c7f62d000580b510c7f62d000510c7f62d000510f550f007f60227f7101107c051150017c03bf504b
:40090000037c085350007c087e500057007c058450010850ae5c187c03ff500008501308500a08087c07cc38fc209084107c07ad2062d00053178075107c08bb2062d00020
:400940003900aff5107c08c162d0005a162008511662d000531318531410570050017c058450010850a95c187c03ff570550017c058462d0005113085114207c043457001c
:4009800050027c058450010850a05c187c03ff570950027c05842062d000511762d0005315105000085115207c0434208f8b8fff107c07717c07b2207f001302000000172c
:4009c0000100ff00303030303030303030303030303030303030303030303030303030303030303030303030303030303030303030303030303030303030303030303030b7
:400a000030303030303030303030303030303030303030303030303030303030303030303030303030303030303030303030303030303030303030303030303030303030b6
:400a40003030303030303030303030303030303030303030303030303030303030303030303030303030303030303030303030303030303030303030303030303030303076
:400a80003030303030303030303030303030303030303030303030303030303030303030303030303030303030303030303030303030303030303030303030303030303036
:400ac00030303030303030303030303030303030303030303030303030303030303030303030303030303030303030303030303030303030303030303030303030303030f6
:020000040010ea
:020000040020da
:0200000056a008
:00000001ff
